:02000002D0002C
:1040000000400D00F4540D00000006000C000501F6
:084010000401BD0B00000000DB
:0440180080520D00C5
:10401C0009480A49884208B505D0094A824202D0AB
:10402C00121A01F0E5F80748074A0021121A01F0AC
:10403C00EDF8014808BD00BFB4E5032064540D0041
:10404C001CE603201CE60320F0E7032070B5074EA6
:10405C00074C00F089FCA41BA4080025A54200D144
:10406C0070BD56F8043B98470135F7E730540D0006
:10407C0054540D0000F056B808B500F089F8BDE8AE
:10408C00084000F033BC00F0D1BA00F0D7BA007889
:10409C00B0FA80F0400970470123037070470000AC
:1040AC0010B501F065F803685B699847C4B200F07D
:1040BC0065FD0A4900F086FB00F060FD214600F02A
:1040CC009EFB312C05D10121BDE81040072000F0EA
:1040DC00CABF302C01D10021F6E710BD94520D005F
:1040EC0010B50446006808B100F0A8FA204610BDCF
:1040FC000368C9B29B68184708B5062000F0CCFFCE
:10410C00012804D101F034F84821FFF7F1FF062013
:10411C0000F0C2FF20B901F02BF84C21FFF7E8FFAB
:10412C0008BD000008B500F0FBFF00F00DFE01F02B
:10413C001FF82A2100F014FE00F020FD4FF4165158
:10414C0000F00CFD0121072000F07CFF002106206F
:10415C0000F078FF01F00CF80A4900F03EFE01F087
:10416C0007F8094900F03DFE00F008FD00F0FAFCEC
:10417C000028F9D000F002FDBDE80840034900F02A
:10418C0034BB00BFAD400D0005410D009A520D002F
:10419C0010B500F0F3FC03681B699847002843D066
:1041AC0000F0ECFC03685B699847C4B2312C14D165
:1041BC0000F0E4FC1D4900F018FB00F0B1FF2A21CF
:1041CC0000F001FE00F0ACFF2146FFF791FF00F07C
:1041DC00A7FFBDE8104000F0FDBD302C20D03F2CD7
:1041EC0022D100F0CBFC124900F0FFFA00F098FF4E
:1041FC0001222A2100F0E0FD00F092FF03681B6908
:10420C0098470028F8D000F08BFF03685B6998474B
:10421C00044600F0B3FCE1B2BDE8104000F0D6BAA1
:10422C0000F0ACFC0349C6E710BD00BFB5520D0051
:10423C00B9520D00B7520D0038B50A4C0A4BA360A9
:10424C00002503202560A580A57100F063F90749BE
:10425C00074A204600F0B4FF29460120BDE838404B
:10426C0000F060B920E603200000FFFFED400D00D8
:10427C001CE6032008B5024B1B689B68019308BD24
:10428C006802030008B5024B1B68DB68019308BD8C
:10429C006802030008B5024B1B689B68019308BDBC
:1042AC002C02030008B5024B1B68DB68019308BDA8
:1042BC002C02030008B5024B1B681B69019308BD57
:1042CC002C02030008B5024B1B685B69019308BD07
:1042DC002C02030008B5024B1B685B68019308BDF8
:1042EC001802030008B5024B1B685B69019308BDFB
:1042FC001802030008B5024B1B685B6C019308BDE8
:10430C004802030008B5024B1B689B6C019308BD67
:10431C004802030008B5024B1B685B69019308BD9A
:10432C006402030008B5024B1B681B68019308BDAF
:10433C003C02030008B5024B1B68DB68019308BD07
:10434C003C02030008B5024B1B681B69019308BDB6
:10435C003C02030008B5024B1B685B69019308BD66
:10436C003C02030008B5024B1B689B69019308BD16
:10437C003C02030008B5024B1B68DB69019308BDC6
:10438C003C02030008B5024B1B681B6A019308BD75
:10439C003C02030008B5024B1B689B6A019308BDE5
:1043AC003C02030008B5024B1B68DB68019308BD97
:1043BC002802030008B5024B1B689B69019308BDDA
:1043CC002802030008B5024B1B68DB69019308BD8A
:1043DC002802030008B5024B1B681B6A019308BD39
:1043EC002802030008B5024B1B685B6A019308BDE9
:1043FC002802030008B5024B1B689B6A019308BD99
:10440C002802030008B5024B1B68DB6A019308BD48
:10441C002802030008B5024B1B681B6B019308BDF7
:10442C002802030008B5024B1B685B6B019308BDA7
:10443C002802030008B5024B1B689B6B019308BD57
:10444C002802030008B5024B1B68DB6B019308BD07
:10445C002802030008B5024B1B681B6C019308BDB6
:10446C002802030008B5024B1B681B6D019308BDA5
:10447C002802030008B5024B1B68DB69019308BDD9
:10448C003002030008B5024B1B681B6A019308BD80
:10449C003002030008B5024B1B681B68019308BD72
:1044AC004C02030008B5024B1B685B68019308BD06
:1044BC004C02030008B5024B1B681B69019308BD35
:1044CC004C02030008B5024B1B685B69019308BDE5
:1044DC004C02030008B5024B1B689B69019308BD95
:1044EC004C02030008B5024B1B68DB69019308BD45
:1044FC004C02030008B5024B1B681B6A019308BDF4
:10450C004C02030008B5024B1B689B6A019308BD63
:10451C004C02030008B5024B1B685B68019308BD95
:10452C002002030008B5024B1B68DB6A019308BD2F
:10453C002002030008B5034B1B68D3F888300193A5
:10454C0008BD00002002030008B5034B1B68D3F81C
:10455C009430019308BD00002002030008B5024B03
:10456C001B685B68019308BD4002030008B5024B51
:10457C001B689B68019308BD4002030008B5024B01
:10458C001B68DB68019308BD4002030008B5024BB1
:10459C001B681B69019308BD4002030008B5024B60
:1045AC001B685B69019308BD4002030008B5024B10
:1045BC001B689B69019308BD4002030008B5024BC0
:1045CC001B68DB69019308BD4002030008B5024B70
:1045DC001B681B6A019308BD4002030008B5024B1F
:1045EC001B681B6B019308BD4002030008B5024B0E
:1045FC001B685B6B019308BD4002030008B5024BBE
:10460C001B681B6C019308BD4002030008B5024BEC
:10461C001B685B6C019308BD4002030008B5024B9C
:10462C001B68DB6B019308BD4402030008B5024B09
:10463C001B681B68019308BD1C02030008B5024BE4
:10464C001B685B68019308BD1C02030008B5024B94
:10465C001B685B6C019308BD1C02030000224068C0
:10466C001146FFF7B3BF002240681146FFF7BEBFEB
:10467C0040680022FFF7B2BF4068002281F00101C0
:10468C00FFF79CBF002340681A461946FFF78EBF00
:10469C00002340681A461946FFF780BF0022406885
:1046AC001146FFF773BF002240681146FFF75EBF4B
:1046BC00406800220221FFF761BF002340681A46C0
:1046CC00FFF74CBF024B03225A60024A1A60704734
:1046DC002CE60320C4520D0010B504460846217088
:1046EC00FFF7C8FE00236360204610BD10B5094BD0
:1046FC00094C022200201A60084B2060A080A07197
:10470C00A360FFF707FF2046054A0649BDE81040A5
:10471C0000F056BD40E6032034E603200000FFFF06
:10472C001CE60320ED400D0010B50446006808B1EE
:10473C00FFF7E8FD204610BD10B58368044613B1A1
:10474C00032201469847204610BD000010B5064CC8
:10475C00002320462360FFF7CDFD2046034A044981
:10476C00BDE8104000F02CBD44E603201CE60320FD
:10477C0035470D00F8B506460D468F180024BD428E
:10478C000CD0336815F8011B9B6830469847031E04
:10479C0001DB1C44F3E7002C08BF1C462046F8BD87
:1047AC0013B50446084659B1019100F05BFD23682E
:1047BC000199DB680246204602B0BDE8104018475C
:1047CC0002B010BD08B5FFF7EBFF08BD03689B688E
:1047DC00184738B50D210546FFF7F8FF0A210446A6
:1047EC002846FFF7F3FF204438BD38B50546FFF7E0
:1047FC00D7FF04462846FFF7ECFF204438BD38B5F8
:10480C000546FFF7E3FF04462846FFF7E2FF204486
:10481C0038BD30B58BB000238DF82430012A98BFF9
:10482C000A2209AC0D46B1FBF2F101FB125303F065
:10483C00FF03092B94BF30333733DBB2AA4204F8A1
:10484C00013DEFD92146FFF7ABFF0BB030BD002384
:10485C0040681A461946FFF7A1BE0000014B024AF8
:10486C001A60704748E60320F8520D00024B1A6894
:10487C00024B1A60704700BFB4E503204CE60320DE
:10488C0010B50446FFF758FF204610BD0348044AF4
:10489C0004490023836000F093BC00BF50E6032062
:1048AC001CE603208D480D00014B1860704700BFBB
:1048BC00B8E5032008B50B4B43B100F05FF9036872
:1048CC001B699847002801DDAFF30080064B43B10C
:1048DC0000F0D2F903681B699847002801DDAFF39B
:1048EC00008008BD000000000000000008B5FFF7C4
:1048FC00E1FFFFF7F7FC014B186008BDBCE7032094
:10490C000248034A0349121A00F072BC00F4032057
:10491C0004F4032060540D0007B5002300931A46DD
:10492C006FF07701FFF710FE03B05DF804FB000099
:10493C0007B543880A2B08D0502B0BD1094B1B68A9
:10494C004BB103B05DF804EB1847FFF7E5FF03B07C
:10495C005DF804FB002300931A466FF07701FFF714
:10496C00F3FDF4E764E6032038B5124C1248134DFE
:10497C000021FFF76BFE2368AB42114B0CBF0122E9
:10498C0000221A7002D0FFF7BBFF2560FFF7A2FCD4
:10499C00044600F043FC0B4B13B12046AFF30080F0
:1049AC0000210848FFF73AFEBDE8384006480021D0
:1049BC00FFF7C0BD00F40320B5480D001E1C279A5C
:1049CC0060E60320000000003D490D00704710B563
:1049DC001821044600F0F9FB204610BDF0B5037D0C
:1049EC00062B8DB00E4600F104074FF0000412D0D8
:1049FC0000F1080515F8011D0A223046FFF709FFE2
:104A0C00AF42044419D0002CF4D02E213046FFF7CD
:104A1C00DDFE0444EEE72F236A4639460A208DF862
:104A2C000040FFF777FC684600F01CFC3368024638
:104A3C00DB68694630469847044620460DB0F0BD09
:104A4C0010B5054B0446112240F8043B002100F040
:104A5C00DDFB204610BD00BF20530D000346074A66
:104A6C0010B543F8042B01F1100251F8044B43F834
:104A7C00044B9142F9D10A781A7010BD20530D00E5
:104A8C0010B59DF8084044EA032343EA024242EA87
:104A9C00016104234160037510BD000013B5054B83
:104AAC000360CB7800938B784A780978FFF7E8FF9E
:104ABC0002B010BD20530D0041747047704708B50B
:104ACC000021007CFFF706FD40EAE07008BD08B548
:104ADC000121007CFFF7FEFC40EAE07008BD08B540
:104AEC00007CFFF7EFFC20EAE07008BD08B5007C05
:104AFC00FFF7E0FC20EAE07008BD13B50446007C2B
:104B0C000191FFF7DFFC0028019901DC607C20B1EA
:104B1C00207CFFF7E7FC20EAE07002B010BD007CBF
:104B2C00FFF7E8BC10B51421044600F04EFB2046FC
:104B3C0010BD000010B54FF47A73044608460021EE
:104B4C00C4E90113044B23600123207463741146E0
:104B5C00FFF7A0FC204610BD34530D00007C002252
:104B6C00FFF7A0BC007CFFF7CDBC10B514220446A7
:104B7C00002100F04BFB204610BD000010B5104C7E
:104B8C0088B003A8FFF7F1FF2178BFF35B8F11F01A
:104B9C00010111D120460191FFF779FA019958B121
:104BAC0003AA0848FFF7C6FF2046FFF775FA064A26
:104BBC000649044800F004FB024808B010BD00BFD1
:104BCC0068E603206CE603201CE60320C94A0D00AE
:104BDC0070474174704708B5007CFFF7DBFB20EA97
:104BEC00E07008BD08B5007CFFF7ACFB20EAE07074
:104BFC0008BD08B5007CFFF7B5FB40EAE07008BDC6
:104C0C0008B5007CFFF7A6FB40EAE07008BD007C0D
:104C1C00FFF7B0BB37B5457C04462DB1207C03B003
:104C2C00BDE83040FFF786BB007C0191FFF7B2FB7B
:104C3C0000280199F2DC284603B030BD10B51421D0
:104C4C00044600F0C2FA204610BD000010B54FF02B
:104C5C00000C0446084611464FF47A72C4E901C2AE
:104C6C00044A22600122207462741A46FFF75AFB30
:104C7C00204610BD64530D0013B50E4C2178BFF3C4
:104C8C005B8F11F0010112D120460191FFF7FFF962
:104C9C00019960B1084A094B0948FFF7D7FF204634
:104CAC00FFF7FAF9074A0849054800F089FA044861
:104CBC0002B010BD80E6032084E6032008E7032041
:104CCC008CE703201CE60320DD4B0D007047F8B584
:104CDC00064615460C468F18BC4206D0336814F8AD
:104CEC00011B9B6830469847F6E72846F8BD007CC8
:104CFC000022FFF76FBB007C0021FFF773BB007C29
:104D0C000021FFF777BB007C0021FFF77BBB007C09
:104D1C000021FFF77FBB10B51421044600F055FAB3
:104D2C00204610BD10B54FF47A7304460846002196
:104D3C00C4E90113034B236020741146FFF78AFB6F
:104D4C00204610BD94530D000023007C1A461946D2
:104D5C00FFF728BB0A46007C00230121FFF722BB8A
:104D6C00C9B2FFF7F7BF7FB500221423CDE90122AA
:104D7C00ADF804300B788DF808304B680393CB6892
:104D8C000493007C0B7A059301A9FFF76BFB07B02A
:104D9C005DF804FB1FB5003B8DF800104FF064016B
:104DAC00039118BF0123694601928DF80830FFF773
:104DBC00DAFF05B05DF804FB0123FFF7EBBF007CC5
:104DCC000022FFF7F7BAC9B2FFF7F9BF007C002247
:104DDC00FFF7F8BA0121FFF7F9BF007C0022FFF7BB
:104DEC0029BB007C0022FFF72DBB00224068114636
:104DFC00FFF7CCBB002240681146FFF7E7BB00224F
:104E0C0040681146FFF7F2BB40680022FFF7E6BB93
:104E1C004068002281F00101FFF7D0BB00234068FD
:104E2C001A461946FFF7C2BB002240681146FFF72D
:104E3C009DBB406800220221FFF7A0BB0023406805
:104E4C001A46FFF78BBB0000024B04225A60024A41
:104E5C001A607047A0E70320BC530D000023406884
:104E6C001A46FFF77BBB406800220221FFF786BB86
:104E7C00002240681146FFF779BB002240681146BA
:104E8C00FFF784BB002340681A461946FFF786BB20
:104E9C00002340681A461946FFF788BB406800217A
:104EAC00FFF7ACBB40680021FFF7B0BB40680022A5
:104EBC0081F00101FFF782BB40680022FFF78EBB37
:104ECC00002240681146FFF791BB00224068114652
:104EDC00FFF77CBB2DE9F043002495B016460D4638
:104EEC000746FFF7ADFD214618220EA8009400F0EE
:104EFC008DF94023CDE90C3421466B460CAA304683
:104F0C00FFF7C0F9044600284CD10246012168681D
:104F1C00FFF73CFB0221804622466868FFF736FB10
:104F2C00009E81462146002E3CD000293AD1736860
:104F3C00022B03D00A2B11D0F669F4E7B8F1000F5D
:104F4C000AD0716906A8043107ADFFF7A7FD0FCD94
:104F5C003C1D0FC42B6823704146EDE7B9F1000FDF
:104F6C0001D14946E8E77469102201A800F04EF916
:104F7C0006238DF8143001AD04F1080318341868B9
:104F8C0059682A4603C20833A3421546F7D101A932
:104F9C0006A807ADFFF762FD0FCD3C1D0FC42B68B3
:104FAC002370DEE70098FFF765F9384615B0BDE8C9
:104FBC00F0830000024B034A1A6000225A607047CB
:104FCC00A8E70320F8530D00232813B502D90020BD
:104FDC0002B010BDA0F10B03022B1AD8174C21788C
:104FEC00BFF35B8F11F001010BD120460191FFF74C
:104FFC004EF8019928B11248FFF76EFB2046FFF7D7
:10500C004BF80F4B1878FFF73DFA0028DFD1012041
:10501C00DEE7012809D800F083F80021007CFFF7B7
:10502C0001FA80F00100C0B2D2E709380128EED8AD
:10503C00FFF722FE007CFFF7A5F9F2E7B0E70320AB
:10504C00B4E70320232838B504460D460AD8FF29B7
:10505C0008D0FFF7B9FF28B129462046BDE83840F3
:10506C00FFF718B938BD38B504460D46FFF71AF9E5
:10507C00FF2810D0062804D84D2323FA00F0C307CC
:10508C0009D42046FFF7A0FF28B129462046BDE8E9
:10509C003840FFF70FB938BD10B50446FFF702F9D9
:1050AC00031FDBB2012B08D92046FFF78DFF20B17F
:1050BC002046BDE81040FFF705B9002010BD0000E8
:1050CC0038B50023202543801423044603808560D3
:1050DC0005610649284600F07AF8044960602846C4
:1050EC0000F075F8E060204638BD00BF2C540D0070
:1050FC0038B50023202543801423044603808560A3
:10510C0005610649284600F062F8044960602846AB
:10511C0000F05DF8E060204638BD00BF2C540D0057
:10512C0030B50F4D2978BFF35B8F11F0010487B0B8
:10513C0013D12846FEF7ABFF78B101A8FFF7C0FFEB
:10514C0001AA21460748FFF7EDFD2846FEF7A4FF0C
:10515C00054A0649034800F033F8024807B030BD51
:10516C00C0E70320C8E703201CE60320D94C0D0040
:10517C0010B50F4C2378BFF35B8FDB0786B013D4CD
:10518C002046FEF784FF78B101A8FFF7B1FF01AA12
:10519C0001210848FFF7C6FD2046FEF77DFF064AB1
:1051AC000649044800F00CF8024806B010BD00BFD8
:1051BC00C4E70320DCE703201CE60320D94C0D00D8
:1051CC000B460146184600F005B8FEF75EBFFEF729
:1051DC005ABF000010B5054C13462CB10A460146C7
:1051EC000220AFF3008010BD2046FCE70000000059
:1051FC000A44914200F1FF3300D1704710B511F809
:10520C00014B03F8014F9142F9D110BD0244034602
:10521C00934200D1704703F8011BF9E738B50D4BE9
:10522C001D68AB6B04467BB91820FFF7FFF90A4ADF
:10523C000A4BA863C0E90023094B83600B238381CD
:10524C0001220023C0E90423AB6B00221C615A61CC
:10525C0038BD00BFB8E503200E33CDAB34126DE67C
:10526C00ECDE0500034613F8012B002AFBD1181ABB
:10527C00013870471D400D0059400D0081400D0054
:10528C0085400D0000000000736C617665004932AA
:10529C0043204D617374657220736C617665206177
:1052AC007661696C61626C6500310030003F000012
:1052BC000000000000000000C7460D00BD460D00B8
:1052CC00B3460D00A9460D009D460D0091460D00FC
:1052DC00A94E0D00B14E0D0085460D007D460D000A
:1052EC0073460D0069460D00E14E0D0061707000B3
:1052FC0025592D256D2D25645425483A254D3A25E3
:10530C0053257A0061736374696D650000000000B9
:10531C0000000000E9490D00D9490D00DB490D00E2
:10532C000000000000000000C94A0D00314B0D00C8
:10533C00074B0D0081470D00F94A0D00CB4A0D00BB
:10534C00DB4A0D002B4B0D00EB4A0D00C54A0D003E
:10535C000000000000000000DD4B0D00494C0D006A
:10536C00214C0D0081470D00F14B0D000D4C0D0033
:10537C00FF4B0D001B4C0D00DF4B0D00E34B0D00E4
:10538C000000000000000000D94C0D00234D0D0062
:10539C00FB4C0D00DB4C0D00034D0D000B4D0D00B7
:1053AC00134D0D001B4D0D0000000000000000000F
:1053BC00494E0D003F4E0D00354E0D00F74D0D00C2
:1053CC005B480D00294E0D00A94E0D00B14E0D008D
:1053DC001D4E0D00154E0D000B4E0D00014E0D0017
:1053EC00E14E0D000000000000000000694E0D00B1
:1053FC00734E0D007D4E0D00874E0D00914E0D002D
:10540C009D4E0D00A94E0D00B14E0D00B94E0D0074
:10541C00C54E0D00CD4E0D00D74E0D00E14E0D00CA
:10542C000000000045420D00D1460D00F9460D006C
:10543C0059470D0069480D0079480D0099480D0039
:10544C00554E0D00C14F0D00000000000000000083
:04545C00000000004C
:045460000000000048
:1054640010530D00BCE50320000000000000000004
:105474000000000000000000000000000000000028
:105484000000000000000000000000000000000018
:105494000000000000000000000000000000000008
:1054A40000000000000000000000000000000000F8
:1054B40000000000000000000000000000000000E8
:0854C4000000000000000000E0
:1054CC00FFFFFFFF00000102030405060708090A9D
:1054DC000B0C0D0E0F101112131415161718191A98
:0854EC001B1C1D1E1F202800DF
:0454F40078563412A0
:04000003D000401CCD
:00000001FF
